:1000000000308A00FD2800000A108A100A118207B9
:10001000C034F934A434B034993492348234F8348E
:10002000803490342B08F8012A0203181A282A0871
:10003000F7002628F7010830AC00AA0DF70D2B08B1
:1000400077020318F700F80DAC0B1D2808008E305E
:10005000F7002B08F8002A08F900FA01F808031D38
:100060003B287908F800F9010830F702F808031D69
:100070003B28F70143280310F81B4228F90DF80D1F
:10008000F7033B28F81308002A080319B428B20024
:100090002E080319B428B207031855287F30B2027E
:1000A000031CB4280319B42859288130B207031857
:1000B000B4283208F700F801F901FA012B08B6005C
:1000C000B6172C08B5002D08B4001830B200B301E3
:1000D000341C82283108FA07031C7428F90A031D0E
:1000E0007428F80A0319B3173008F907031C7B2892
:1000F000F80A0319B3172F08AC00AC172C08F8073F
:100100000318B317B30DF80CF90CFA0CB60CB50CB8
:10011000B40C0310B20B67280130F7070318B4289A
:10012000F81B9928B60DFA0DF90DF80DF703031910
:10013000B428B61FAA28FA0A031DAA28F90A031D23
:10014000AA28F80A031DAA28F80CF90CFA0CF70AD9
:100150000319B4282B08B3002F08B306B31FB22825
:10016000F817B828F813B828F701F801F901FA01CF
:1001700008008E30F7002908F7022A08F9002B083A
:10018000F800F917F7080319D0280310F908031D20
:10019000CC28F8080319D028F90CF80CF70BC5285F
:1001A000AA1FD728F809F909F80A0319F90A08005B
:1001B000231CE628A608031DE428A318E428A00AA7
:1001C0002008633C031CA0010130A600231CA601EB
:1001D000A31CF828A708031DF6282318F628A00357
:1001E0002008633C0318F6286330A0000130A70004
:1001F000A31CA7018A110A12582A03081F39830079
:100200002310A310FF30A500A601A701A8008316A4
:100210001F149F141F159F1107309C008313831216
:1002200003178D0183168C130C1483120C0803130F
:10023000A00083161F109F101F159F111F138312FC
:100240001F179F1783169F1383121F140030F80087
:100250001F08C73978049F002008AA000A30AB00A5
:1002600012207808AA000A30AB0012207708042078
:100270002505A90083168601831229088600200817
:10028000AA000A30AB00122077080420A900003031
:10029000A800831687018312290887000030F80020
:1002A0001F08C73978049F001830F700F70B56294C
:1002B00059291F151F195A29AB011E08AA0027200A
:1002C0007A08AD007908AC007808AB007708AA007E
:1002D0001430B100AE30B0004730AF007D30AE001A
:1002E00044207A08AC007908AB007808AA007708A7
:1002F000A900B9207808A2002208463C03188329E7
:100300002314FF30A50022081D3C031C8A2923105A
:100310007F30A5000830F8001F08C73978049F0017
:100320001830F700F70B922995291F151F199629E8
:10033000AB011E08AA0027207A08AD007908AC009E
:100340007808AB007708AA001430B100AE30B000D6
:100350004730AF007D30AE0044207A08AC00790809
:10036000AB007808AA007708A900B9207808A40093
:100370002408463C0318BF29A314FF30A500240815
:100380001D3C031CC629A3107F30A50020082102B4
:100390000319E4292008A1000B08F7008B130317A9
:1003A0008D010313200803178C0083168C130C1582
:1003B00055308D00AA308D008C148C18DD290C115D
:1003C0007708831203138B04831608158312081908
:1003D000072A831608158312081DE929A0010B08B6
:1003E000F7008B1303178D010313200803178C00EC
:1003F00083168C130C1555308D00AA308D008C148B
:100400008C18002A0C117708831203138B048316AF
:10041000081483120818302A831608148312081C43
:100420000C2AA0032008633C0318182A6330A0009C
:100430000B08F7008B1303178D0103132008031714
:100440008C0083168C130C1555308D00AA308D004E
:100450008C148C18292A0C117708831203138B042F
:100460008316881483128818572A831688148312D7
:10047000881C352AA00A2008633C031CA0010B0835
:10048000F7008B1303178D010313200803178C004B
:1004900083168C130C1555308D00AA308D008C14EA
:1004A0008C18502A0C117708831203138B04D82858
:1004B000A0080319602A8316091183120915642AFA
:0C04C00083160911831209112C29630016
:02400E00422F3F
:00000001FF
;PIC16F877A
;CRC=1834  CREATED="14-Nov-21 18:38"
